{
  "_format": "hh-sol-artifact-1",
  "contractName": "Spacebear",
  "sourceName": "contracts/Spacebear.sol",
  "abi": [
    {
      "inputs": [
        {
          "internalType": "address",
          "name": "initialOwner",
          "type": "address"
        }
      ],
      "stateMutability": "nonpayable",
      "type": "constructor"
    },
    {
      "inputs": [
        {
          "internalType": "address",
          "name": "sender",
          "type": "address"
        },
        {
          "internalType": "uint256",
          "name": "tokenId",
          "type": "uint256"
        },
        {
          "internalType": "address",
          "name": "owner",
          "type": "address"
        }
      ],
      "name": "ERC721IncorrectOwner",
      "type": "error"
    },
    {
      "inputs": [
        {
          "internalType": "address",
          "name": "operator",
          "type": "address"
        },
        {
          "internalType": "uint256",
          "name": "tokenId",
          "type": "uint256"
        }
      ],
      "name": "ERC721InsufficientApproval",
      "type": "error"
    },
    {
      "inputs": [
        {
          "internalType": "address",
          "name": "approver",
          "type": "address"
        }
      ],
      "name": "ERC721InvalidApprover",
      "type": "error"
    },
    {
      "inputs": [
        {
          "internalType": "address",
          "name": "operator",
          "type": "address"
        }
      ],
      "name": "ERC721InvalidOperator",
      "type": "error"
    },
    {
      "inputs": [
        {
          "internalType": "address",
          "name": "owner",
          "type": "address"
        }
      ],
      "name": "ERC721InvalidOwner",
      "type": "error"
    },
    {
      "inputs": [
        {
          "internalType": "address",
          "name": "receiver",
          "type": "address"
        }
      ],
      "name": "ERC721InvalidReceiver",
      "type": "error"
    },
    {
      "inputs": [
        {
          "internalType": "address",
          "name": "sender",
          "type": "address"
        }
      ],
      "name": "ERC721InvalidSender",
      "type": "error"
    },
    {
      "inputs": [
        {
          "internalType": "uint256",
          "name": "tokenId",
          "type": "uint256"
        }
      ],
      "name": "ERC721NonexistentToken",
      "type": "error"
    },
    {
      "inputs": [
        {
          "internalType": "address",
          "name": "owner",
          "type": "address"
        }
      ],
      "name": "OwnableInvalidOwner",
      "type": "error"
    },
    {
      "inputs": [
        {
          "internalType": "address",
          "name": "account",
          "type": "address"
        }
      ],
      "name": "OwnableUnauthorizedAccount",
      "type": "error"
    },
    {
      "anonymous": false,
      "inputs": [
        {
          "indexed": true,
          "internalType": "address",
          "name": "owner",
          "type": "address"
        },
        {
          "indexed": true,
          "internalType": "address",
          "name": "approved",
          "type": "address"
        },
        {
          "indexed": true,
          "internalType": "uint256",
          "name": "tokenId",
          "type": "uint256"
        }
      ],
      "name": "Approval",
      "type": "event"
    },
    {
      "anonymous": false,
      "inputs": [
        {
          "indexed": true,
          "internalType": "address",
          "name": "owner",
          "type": "address"
        },
        {
          "indexed": true,
          "internalType": "address",
          "name": "operator",
          "type": "address"
        },
        {
          "indexed": false,
          "internalType": "bool",
          "name": "approved",
          "type": "bool"
        }
      ],
      "name": "ApprovalForAll",
      "type": "event"
    },
    {
      "anonymous": false,
      "inputs": [
        {
          "indexed": true,
          "internalType": "address",
          "name": "previousOwner",
          "type": "address"
        },
        {
          "indexed": true,
          "internalType": "address",
          "name": "newOwner",
          "type": "address"
        }
      ],
      "name": "OwnershipTransferred",
      "type": "event"
    },
    {
      "anonymous": false,
      "inputs": [
        {
          "indexed": true,
          "internalType": "address",
          "name": "from",
          "type": "address"
        },
        {
          "indexed": true,
          "internalType": "address",
          "name": "to",
          "type": "address"
        },
        {
          "indexed": true,
          "internalType": "uint256",
          "name": "tokenId",
          "type": "uint256"
        }
      ],
      "name": "Transfer",
      "type": "event"
    },
    {
      "inputs": [
        {
          "internalType": "address",
          "name": "to",
          "type": "address"
        },
        {
          "internalType": "uint256",
          "name": "tokenId",
          "type": "uint256"
        }
      ],
      "name": "approve",
      "outputs": [],
      "stateMutability": "nonpayable",
      "type": "function"
    },
    {
      "inputs": [
        {
          "internalType": "address",
          "name": "owner",
          "type": "address"
        }
      ],
      "name": "balanceOf",
      "outputs": [
        {
          "internalType": "uint256",
          "name": "",
          "type": "uint256"
        }
      ],
      "stateMutability": "view",
      "type": "function"
    },
    {
      "inputs": [],
      "name": "buyToken",
      "outputs": [],
      "stateMutability": "payable",
      "type": "function"
    },
    {
      "inputs": [
        {
          "internalType": "uint256",
          "name": "tokenId",
          "type": "uint256"
        }
      ],
      "name": "getApproved",
      "outputs": [
        {
          "internalType": "address",
          "name": "",
          "type": "address"
        }
      ],
      "stateMutability": "view",
      "type": "function"
    },
    {
      "inputs": [
        {
          "internalType": "address",
          "name": "owner",
          "type": "address"
        },
        {
          "internalType": "address",
          "name": "operator",
          "type": "address"
        }
      ],
      "name": "isApprovedForAll",
      "outputs": [
        {
          "internalType": "bool",
          "name": "",
          "type": "bool"
        }
      ],
      "stateMutability": "view",
      "type": "function"
    },
    {
      "inputs": [],
      "name": "name",
      "outputs": [
        {
          "internalType": "string",
          "name": "",
          "type": "string"
        }
      ],
      "stateMutability": "view",
      "type": "function"
    },
    {
      "inputs": [],
      "name": "owner",
      "outputs": [
        {
          "internalType": "address",
          "name": "",
          "type": "address"
        }
      ],
      "stateMutability": "view",
      "type": "function"
    },
    {
      "inputs": [
        {
          "internalType": "uint256",
          "name": "tokenId",
          "type": "uint256"
        }
      ],
      "name": "ownerOf",
      "outputs": [
        {
          "internalType": "address",
          "name": "",
          "type": "address"
        }
      ],
      "stateMutability": "view",
      "type": "function"
    },
    {
      "inputs": [],
      "name": "renounceOwnership",
      "outputs": [],
      "stateMutability": "nonpayable",
      "type": "function"
    },
    {
      "inputs": [
        {
          "internalType": "address",
          "name": "to",
          "type": "address"
        }
      ],
      "name": "safeMint",
      "outputs": [],
      "stateMutability": "nonpayable",
      "type": "function"
    },
    {
      "inputs": [
        {
          "internalType": "address",
          "name": "from",
          "type": "address"
        },
        {
          "internalType": "address",
          "name": "to",
          "type": "address"
        },
        {
          "internalType": "uint256",
          "name": "tokenId",
          "type": "uint256"
        }
      ],
      "name": "safeTransferFrom",
      "outputs": [],
      "stateMutability": "nonpayable",
      "type": "function"
    },
    {
      "inputs": [
        {
          "internalType": "address",
          "name": "from",
          "type": "address"
        },
        {
          "internalType": "address",
          "name": "to",
          "type": "address"
        },
        {
          "internalType": "uint256",
          "name": "tokenId",
          "type": "uint256"
        },
        {
          "internalType": "bytes",
          "name": "data",
          "type": "bytes"
        }
      ],
      "name": "safeTransferFrom",
      "outputs": [],
      "stateMutability": "nonpayable",
      "type": "function"
    },
    {
      "inputs": [
        {
          "internalType": "address",
          "name": "operator",
          "type": "address"
        },
        {
          "internalType": "bool",
          "name": "approved",
          "type": "bool"
        }
      ],
      "name": "setApprovalForAll",
      "outputs": [],
      "stateMutability": "nonpayable",
      "type": "function"
    },
    {
      "inputs": [
        {
          "internalType": "bytes4",
          "name": "interfaceId",
          "type": "bytes4"
        }
      ],
      "name": "supportsInterface",
      "outputs": [
        {
          "internalType": "bool",
          "name": "",
          "type": "bool"
        }
      ],
      "stateMutability": "view",
      "type": "function"
    },
    {
      "inputs": [],
      "name": "symbol",
      "outputs": [
        {
          "internalType": "string",
          "name": "",
          "type": "string"
        }
      ],
      "stateMutability": "view",
      "type": "function"
    },
    {
      "inputs": [
        {
          "internalType": "uint256",
          "name": "tokenId",
          "type": "uint256"
        }
      ],
      "name": "tokenURI",
      "outputs": [
        {
          "internalType": "string",
          "name": "",
          "type": "string"
        }
      ],
      "stateMutability": "pure",
      "type": "function"
    },
    {
      "inputs": [
        {
          "internalType": "address",
          "name": "from",
          "type": "address"
        },
        {
          "internalType": "address",
          "name": "to",
          "type": "address"
        },
        {
          "internalType": "uint256",
          "name": "tokenId",
          "type": "uint256"
        }
      ],
      "name": "transferFrom",
      "outputs": [],
      "stateMutability": "nonpayable",
      "type": "function"
    },
    {
      "inputs": [
        {
          "internalType": "address",
          "name": "newOwner",
          "type": "address"
        }
      ],
      "name": "transferOwnership",
      "outputs": [],
      "stateMutability": "nonpayable",
      "type": "function"
    }
  ],
  "bytecode": "0x608060405234801561001057600080fd5b5060405161282538038061282583398181016040528101906100329190610272565b806040518060400160405280600981526020017f53706163656265617200000000000000000000000000000000000000000000008152506040518060400160405280600381526020017f534252000000000000000000000000000000000000000000000000000000000081525081600090816100ae91906104ef565b5080600190816100be91906104ef565b505050600073ffffffffffffffffffffffffffffffffffffffff168173ffffffffffffffffffffffffffffffffffffffff16036101335760006040517f1e4fbdf700000000000000000000000000000000000000000000000000000000815260040161012a91906105d0565b60405180910390fd5b6101428161014960201b60201c565b50506105eb565b6000600660009054906101000a900473ffffffffffffffffffffffffffffffffffffffff16905081600660006101000a81548173ffffffffffffffffffffffffffffffffffffffff021916908373ffffffffffffffffffffffffffffffffffffffff1602179055508173ffffffffffffffffffffffffffffffffffffffff168173ffffffffffffffffffffffffffffffffffffffff167f8be0079c531659141344cd1fd0a4f28419497f9722a3daafe3b4186f6b6457e060405160405180910390a35050565b600080fd5b600073ffffffffffffffffffffffffffffffffffffffff82169050919050565b600061023f82610214565b9050919050565b61024f81610234565b811461025a57600080fd5b50565b60008151905061026c81610246565b92915050565b6000602082840312156102885761028761020f565b5b60006102968482850161025d565b91505092915050565b600081519050919050565b7f4e487b7100000000000000000000000000000000000000000000000000000000600052604160045260246000fd5b7f4e487b7100000000000000000000000000000000000000000000000000000000600052602260045260246000fd5b6000600282049050600182168061032057607f821691505b602082108103610333576103326102d9565b5b50919050565b60008190508160005260206000209050919050565b60006020601f8301049050919050565b600082821b905092915050565b60006008830261039b7fffffffffffffffffffffffffffffffffffffffffffffffffffffffffffffffff8261035e565b6103a5868361035e565b95508019841693508086168417925050509392505050565b6000819050919050565b6000819050919050565b60006103ec6103e76103e2846103bd565b6103c7565b6103bd565b9050919050565b6000819050919050565b610406836103d1565b61041a610412826103f3565b84845461036b565b825550505050565b600090565b61042f610422565b61043a8184846103fd565b505050565b5b8181101561045e57610453600082610427565b600181019050610440565b5050565b601f8211156104a35761047481610339565b61047d8461034e565b8101602085101561048c578190505b6104a06104988561034e565b83018261043f565b50505b505050565b600082821c905092915050565b60006104c6600019846008026104a8565b1980831691505092915050565b60006104df83836104b5565b9150826002028217905092915050565b6104f88261029f565b67ffffffffffffffff811115610511576105106102aa565b5b61051b8254610308565b610526828285610462565b600060209050601f8311600181146105595760008415610547578287015190505b61055185826104d3565b8655506105b9565b601f19841661056786610339565b60005b8281101561058f5784890151825560018201915060208501945060208101905061056a565b868310156105ac57848901516105a8601f8916826104b5565b8355505b6001600288020188555050505b505050505050565b6105ca81610234565b82525050565b60006020820190506105e560008301846105c1565b92915050565b61222b806105fa6000396000f3fe6080604052600436106101095760003560e01c8063715018a611610095578063a482171911610064578063a482171914610367578063b88d4fde14610371578063c87b56dd1461039a578063e985e9c5146103d7578063f2fde38b1461041457610109565b8063715018a6146102d15780638da5cb5b146102e857806395d89b4114610313578063a22cb4651461033e57610109565b806323b872dd116100dc57806323b872dd146101dc57806340d097c31461020557806342842e0e1461022e5780636352211e1461025757806370a082311461029457610109565b806301ffc9a71461010e57806306fdde031461014b578063081812fc14610176578063095ea7b3146101b3575b600080fd5b34801561011a57600080fd5b5061013560048036038101906101309190611822565b61043d565b604051610142919061186a565b60405180910390f35b34801561015757600080fd5b5061016061044f565b60405161016d9190611915565b60405180910390f35b34801561018257600080fd5b5061019d6004803603810190610198919061196d565b6104e1565b6040516101aa91906119db565b60405180910390f35b3480156101bf57600080fd5b506101da60048036038101906101d59190611a22565b6104fd565b005b3480156101e857600080fd5b5061020360048036038101906101fe9190611a62565b610513565b005b34801561021157600080fd5b5061022c60048036038101906102279190611ab5565b610615565b005b34801561023a57600080fd5b5061025560048036038101906102509190611a62565b610646565b005b34801561026357600080fd5b5061027e6004803603810190610279919061196d565b610666565b60405161028b91906119db565b60405180910390f35b3480156102a057600080fd5b506102bb60048036038101906102b69190611ab5565b610678565b6040516102c89190611af1565b60405180910390f35b3480156102dd57600080fd5b506102e6610732565b005b3480156102f457600080fd5b506102fd610746565b60405161030a91906119db565b60405180910390f35b34801561031f57600080fd5b50610328610770565b6040516103359190611915565b60405180910390f35b34801561034a57600080fd5b5061036560048036038101906103609190611b38565b610802565b005b61036f610818565b005b34801561037d57600080fd5b5061039860048036038101906103939190611cad565b6108a5565b005b3480156103a657600080fd5b506103c160048036038101906103bc919061196d565b6108ca565b6040516103ce9190611915565b60405180910390f35b3480156103e357600080fd5b506103fe60048036038101906103f99190611d30565b610908565b60405161040b919061186a565b60405180910390f35b34801561042057600080fd5b5061043b60048036038101906104369190611ab5565b61099c565b005b600061044882610a22565b9050919050565b60606000805461045e90611d9f565b80601f016020809104026020016040519081016040528092919081815260200182805461048a90611d9f565b80156104d75780601f106104ac576101008083540402835291602001916104d7565b820191906000526020600020905b8154815290600101906020018083116104ba57829003601f168201915b5050505050905090565b60006104ec82610b04565b506104f682610b8c565b9050919050565b61050f828261050a610bc9565b610bd1565b5050565b600073ffffffffffffffffffffffffffffffffffffffff168273ffffffffffffffffffffffffffffffffffffffff16036105855760006040517f64a0ae9200000000000000000000000000000000000000000000000000000000815260040161057c91906119db565b60405180910390fd5b60006105998383610594610bc9565b610be3565b90508373ffffffffffffffffffffffffffffffffffffffff168173ffffffffffffffffffffffffffffffffffffffff161461060f578382826040517f64283d7b00000000000000000000000000000000000000000000000000000000815260040161060693929190611dd0565b60405180910390fd5b50505050565b61061d610dfd565b60006007600081548092919061063290611e36565b9190505590506106428282610e84565b5050565b610661838383604051806020016040528060008152506108a5565b505050565b600061067182610b04565b9050919050565b60008073ffffffffffffffffffffffffffffffffffffffff168273ffffffffffffffffffffffffffffffffffffffff16036106eb5760006040517f89c62b640000000000000000000000000000000000000000000000000000000081526004016106e291906119db565b60405180910390fd5b600360008373ffffffffffffffffffffffffffffffffffffffff1673ffffffffffffffffffffffffffffffffffffffff168152602001908152602001600020549050919050565b61073a610dfd565b6107446000610ea2565b565b6000600660009054906101000a900473ffffffffffffffffffffffffffffffffffffffff16905090565b60606001805461077f90611d9f565b80601f01602080910402602001604051908101604052809291908181526020018280546107ab90611d9f565b80156107f85780601f106107cd576101008083540402835291602001916107f8565b820191906000526020600020905b8154815290600101906020018083116107db57829003601f168201915b5050505050905090565b61081461080d610bc9565b8383610f68565b5050565b6000600754905067016345785d8a00006001826108359190611e7e565b61083f9190611eb2565b3414610880576040517f08c379a000000000000000000000000000000000000000000000000000000000815260040161087790611f40565b60405180910390fd5b6007600081548092919061089390611e36565b91905055506108a23382610e84565b50565b6108b0848484610513565b6108c46108bb610bc9565b858585856110d7565b50505050565b60606108d4611288565b6001836108e19190611e7e565b6040516020016108f2929190612055565b6040516020818303038152906040529050919050565b6000600560008473ffffffffffffffffffffffffffffffffffffffff1673ffffffffffffffffffffffffffffffffffffffff16815260200190815260200160002060008373ffffffffffffffffffffffffffffffffffffffff1673ffffffffffffffffffffffffffffffffffffffff16815260200190815260200160002060009054906101000a900460ff16905092915050565b6109a4610dfd565b600073ffffffffffffffffffffffffffffffffffffffff168173ffffffffffffffffffffffffffffffffffffffff1603610a165760006040517f1e4fbdf7000000000000000000000000000000000000000000000000000000008152600401610a0d91906119db565b60405180910390fd5b610a1f81610ea2565b50565b60007f80ac58cd000000000000000000000000000000000000000000000000000000007bffffffffffffffffffffffffffffffffffffffffffffffffffffffff1916827bffffffffffffffffffffffffffffffffffffffffffffffffffffffff19161480610aed57507f5b5e139f000000000000000000000000000000000000000000000000000000007bffffffffffffffffffffffffffffffffffffffffffffffffffffffff1916827bffffffffffffffffffffffffffffffffffffffffffffffffffffffff1916145b80610afd5750610afc826112a8565b5b9050919050565b600080610b1083611312565b9050600073ffffffffffffffffffffffffffffffffffffffff168173ffffffffffffffffffffffffffffffffffffffff1603610b8357826040517f7e273289000000000000000000000000000000000000000000000000000000008152600401610b7a9190611af1565b60405180910390fd5b80915050919050565b60006004600083815260200190815260200160002060009054906101000a900473ffffffffffffffffffffffffffffffffffffffff169050919050565b600033905090565b610bde838383600161134f565b505050565b600080610bef84611312565b9050600073ffffffffffffffffffffffffffffffffffffffff168373ffffffffffffffffffffffffffffffffffffffff1614610c3157610c30818486611514565b5b600073ffffffffffffffffffffffffffffffffffffffff168173ffffffffffffffffffffffffffffffffffffffff1614610cc257610c7360008560008061134f565b6001600360008373ffffffffffffffffffffffffffffffffffffffff1673ffffffffffffffffffffffffffffffffffffffff168152602001908152602001600020600082825403925050819055505b600073ffffffffffffffffffffffffffffffffffffffff168573ffffffffffffffffffffffffffffffffffffffff1614610d45576001600360008773ffffffffffffffffffffffffffffffffffffffff1673ffffffffffffffffffffffffffffffffffffffff168152602001908152602001600020600082825401925050819055505b846002600086815260200190815260200160002060006101000a81548173ffffffffffffffffffffffffffffffffffffffff021916908373ffffffffffffffffffffffffffffffffffffffff160217905550838573ffffffffffffffffffffffffffffffffffffffff168273ffffffffffffffffffffffffffffffffffffffff167fddf252ad1be2c89b69c2b068fc378daa952ba7f163c4a11628f55a4df523b3ef60405160405180910390a4809150509392505050565b610e05610bc9565b73ffffffffffffffffffffffffffffffffffffffff16610e23610746565b73ffffffffffffffffffffffffffffffffffffffff1614610e8257610e46610bc9565b6040517f118cdaa7000000000000000000000000000000000000000000000000000000008152600401610e7991906119db565b60405180910390fd5b565b610e9e8282604051806020016040528060008152506115d8565b5050565b6000600660009054906101000a900473ffffffffffffffffffffffffffffffffffffffff16905081600660006101000a81548173ffffffffffffffffffffffffffffffffffffffff021916908373ffffffffffffffffffffffffffffffffffffffff1602179055508173ffffffffffffffffffffffffffffffffffffffff168173ffffffffffffffffffffffffffffffffffffffff167f8be0079c531659141344cd1fd0a4f28419497f9722a3daafe3b4186f6b6457e060405160405180910390a35050565b600073ffffffffffffffffffffffffffffffffffffffff168273ffffffffffffffffffffffffffffffffffffffff1603610fd957816040517f5b08ba18000000000000000000000000000000000000000000000000000000008152600401610fd091906119db565b60405180910390fd5b80600560008573ffffffffffffffffffffffffffffffffffffffff1673ffffffffffffffffffffffffffffffffffffffff16815260200190815260200160002060008473ffffffffffffffffffffffffffffffffffffffff1673ffffffffffffffffffffffffffffffffffffffff16815260200190815260200160002060006101000a81548160ff0219169083151502179055508173ffffffffffffffffffffffffffffffffffffffff168373ffffffffffffffffffffffffffffffffffffffff167f17307eab39ab6107e8899845ad3d59bd9653f200f220920489ca2b5937696c31836040516110ca919061186a565b60405180910390a3505050565b60008373ffffffffffffffffffffffffffffffffffffffff163b1115611281578273ffffffffffffffffffffffffffffffffffffffff1663150b7a02868685856040518563ffffffff1660e01b815260040161113694939291906120e8565b6020604051808303816000875af192505050801561117257506040513d601f19601f8201168201806040525081019061116f9190612149565b60015b6111f6573d80600081146111a2576040519150601f19603f3d011682016040523d82523d6000602084013e6111a7565b606091505b5060008151036111ee57836040517f64a0ae920000000000000000000000000000000000000000000000000000000081526004016111e591906119db565b60405180910390fd5b805181602001fd5b63150b7a0260e01b7bffffffffffffffffffffffffffffffffffffffffffffffffffffffff1916817bffffffffffffffffffffffffffffffffffffffffffffffffffffffff19161461127f57836040517f64a0ae9200000000000000000000000000000000000000000000000000000000815260040161127691906119db565b60405180910390fd5b505b5050505050565b60606040518060800160405280605681526020016121a060569139905090565b60007f01ffc9a7000000000000000000000000000000000000000000000000000000007bffffffffffffffffffffffffffffffffffffffffffffffffffffffff1916827bffffffffffffffffffffffffffffffffffffffffffffffffffffffff1916149050919050565b60006002600083815260200190815260200160002060009054906101000a900473ffffffffffffffffffffffffffffffffffffffff169050919050565b80806113885750600073ffffffffffffffffffffffffffffffffffffffff168273ffffffffffffffffffffffffffffffffffffffff1614155b156114bc57600061139884610b04565b9050600073ffffffffffffffffffffffffffffffffffffffff168373ffffffffffffffffffffffffffffffffffffffff161415801561140357508273ffffffffffffffffffffffffffffffffffffffff168173ffffffffffffffffffffffffffffffffffffffff1614155b801561141657506114148184610908565b155b1561145857826040517fa9fbf51f00000000000000000000000000000000000000000000000000000000815260040161144f91906119db565b60405180910390fd5b81156114ba57838573ffffffffffffffffffffffffffffffffffffffff168273ffffffffffffffffffffffffffffffffffffffff167f8c5be1e5ebec7d5bd14f71427d1e84f3dd0314c0f7b2291e5b200ac8c7c3b92560405160405180910390a45b505b836004600085815260200190815260200160002060006101000a81548173ffffffffffffffffffffffffffffffffffffffff021916908373ffffffffffffffffffffffffffffffffffffffff16021790555050505050565b61151f8383836115fc565b6115d357600073ffffffffffffffffffffffffffffffffffffffff168373ffffffffffffffffffffffffffffffffffffffff160361159457806040517f7e27328900000000000000000000000000000000000000000000000000000000815260040161158b9190611af1565b60405180910390fd5b81816040517f177e802f0000000000000000000000000000000000000000000000000000000081526004016115ca929190612176565b60405180910390fd5b505050565b6115e283836116bd565b6115f76115ed610bc9565b60008585856110d7565b505050565b60008073ffffffffffffffffffffffffffffffffffffffff168373ffffffffffffffffffffffffffffffffffffffff16141580156116b457508273ffffffffffffffffffffffffffffffffffffffff168473ffffffffffffffffffffffffffffffffffffffff16148061167557506116748484610908565b5b806116b357508273ffffffffffffffffffffffffffffffffffffffff1661169b83610b8c565b73ffffffffffffffffffffffffffffffffffffffff16145b5b90509392505050565b600073ffffffffffffffffffffffffffffffffffffffff168273ffffffffffffffffffffffffffffffffffffffff160361172f5760006040517f64a0ae9200000000000000000000000000000000000000000000000000000000815260040161172691906119db565b60405180910390fd5b600061173d83836000610be3565b9050600073ffffffffffffffffffffffffffffffffffffffff168173ffffffffffffffffffffffffffffffffffffffff16146117b15760006040517f73c6ac6e0000000000000000000000000000000000000000000000000000000081526004016117a891906119db565b60405180910390fd5b505050565b6000604051905090565b600080fd5b600080fd5b60007fffffffff0000000000000000000000000000000000000000000000000000000082169050919050565b6117ff816117ca565b811461180a57600080fd5b50565b60008135905061181c816117f6565b92915050565b600060208284031215611838576118376117c0565b5b60006118468482850161180d565b91505092915050565b60008115159050919050565b6118648161184f565b82525050565b600060208201905061187f600083018461185b565b92915050565b600081519050919050565b600082825260208201905092915050565b60005b838110156118bf5780820151818401526020810190506118a4565b60008484015250505050565b6000601f19601f8301169050919050565b60006118e782611885565b6118f18185611890565b93506119018185602086016118a1565b61190a816118cb565b840191505092915050565b6000602082019050818103600083015261192f81846118dc565b905092915050565b6000819050919050565b61194a81611937565b811461195557600080fd5b50565b60008135905061196781611941565b92915050565b600060208284031215611983576119826117c0565b5b600061199184828501611958565b91505092915050565b600073ffffffffffffffffffffffffffffffffffffffff82169050919050565b60006119c58261199a565b9050919050565b6119d5816119ba565b82525050565b60006020820190506119f060008301846119cc565b92915050565b6119ff816119ba565b8114611a0a57600080fd5b50565b600081359050611a1c816119f6565b92915050565b60008060408385031215611a3957611a386117c0565b5b6000611a4785828601611a0d565b9250506020611a5885828601611958565b9150509250929050565b600080600060608486031215611a7b57611a7a6117c0565b5b6000611a8986828701611a0d565b9350506020611a9a86828701611a0d565b9250506040611aab86828701611958565b9150509250925092565b600060208284031215611acb57611aca6117c0565b5b6000611ad984828501611a0d565b91505092915050565b611aeb81611937565b82525050565b6000602082019050611b066000830184611ae2565b92915050565b611b158161184f565b8114611b2057600080fd5b50565b600081359050611b3281611b0c565b92915050565b60008060408385031215611b4f57611b4e6117c0565b5b6000611b5d85828601611a0d565b9250506020611b6e85828601611b23565b9150509250929050565b600080fd5b600080fd5b7f4e487b7100000000000000000000000000000000000000000000000000000000600052604160045260246000fd5b611bba826118cb565b810181811067ffffffffffffffff82111715611bd957611bd8611b82565b5b80604052505050565b6000611bec6117b6565b9050611bf88282611bb1565b919050565b600067ffffffffffffffff821115611c1857611c17611b82565b5b611c21826118cb565b9050602081019050919050565b82818337600083830152505050565b6000611c50611c4b84611bfd565b611be2565b905082815260208101848484011115611c6c57611c6b611b7d565b5b611c77848285611c2e565b509392505050565b600082601f830112611c9457611c93611b78565b5b8135611ca4848260208601611c3d565b91505092915050565b60008060008060808587031215611cc757611cc66117c0565b5b6000611cd587828801611a0d565b9450506020611ce687828801611a0d565b9350506040611cf787828801611958565b925050606085013567ffffffffffffffff811115611d1857611d176117c5565b5b611d2487828801611c7f565b91505092959194509250565b60008060408385031215611d4757611d466117c0565b5b6000611d5585828601611a0d565b9250506020611d6685828601611a0d565b9150509250929050565b7f4e487b7100000000000000000000000000000000000000000000000000000000600052602260045260246000fd5b60006002820490506001821680611db757607f821691505b602082108103611dca57611dc9611d70565b5b50919050565b6000606082019050611de560008301866119cc565b611df26020830185611ae2565b611dff60408301846119cc565b949350505050565b7f4e487b7100000000000000000000000000000000000000000000000000000000600052601160045260246000fd5b6000611e4182611937565b91507fffffffffffffffffffffffffffffffffffffffffffffffffffffffffffffffff8203611e7357611e72611e07565b5b600182019050919050565b6000611e8982611937565b9150611e9483611937565b9250828201905080821115611eac57611eab611e07565b5b92915050565b6000611ebd82611937565b9150611ec883611937565b9250828202611ed681611937565b91508282048414831517611eed57611eec611e07565b5b5092915050565b7f2057726f6e6720616d6f756e74206f662066756e64732073656e740000000000600082015250565b6000611f2a601b83611890565b9150611f3582611ef4565b602082019050919050565b60006020820190508181036000830152611f5981611f1d565b9050919050565b600081905092915050565b6000611f7682611885565b611f808185611f60565b9350611f908185602086016118a1565b80840191505092915050565b7f7370616365626561725f00000000000000000000000000000000000000000000600082015250565b6000611fd2600a83611f60565b9150611fdd82611f9c565b600a82019050919050565b6000819050919050565b612003611ffe82611937565b611fe8565b82525050565b7f2e6a736f6e000000000000000000000000000000000000000000000000000000600082015250565b600061203f600583611f60565b915061204a82612009565b600582019050919050565b60006120618285611f6b565b915061206c82611fc5565b91506120788284611ff2565b60208201915061208782612032565b91508190509392505050565b600081519050919050565b600082825260208201905092915050565b60006120ba82612093565b6120c4818561209e565b93506120d48185602086016118a1565b6120dd816118cb565b840191505092915050565b60006080820190506120fd60008301876119cc565b61210a60208301866119cc565b6121176040830185611ae2565b818103606083015261212981846120af565b905095945050505050565b600081519050612143816117f6565b92915050565b60006020828403121561215f5761215e6117c0565b5b600061216d84828501612134565b91505092915050565b600060408201905061218b60008301856119cc565b6121986020830184611ae2565b939250505056fe68747470733a2f2f657468657265756d2d626c6f636b636861696e2d646576656c6f7065722e636f6d2f323032322d30362d6e66742d74727566666c652d686172646861742d666f756e6472792f6e6674646174612fa2646970667358221220616a6d6b4812d0dee59a2aa981a62472c636743103f2d96d338a7bb5663e498764736f6c634300081c0033",
  "linkReferences": {},
  "deployedLinkReferences": {}
}